:020000040800F2
:10000000B00B0020290200087124000873240008A6
:1000100075240008772400087924000800000000F7
:100020000000000000000000000000007B24000829
:100030007D240008000000007F24000883240008BD
:10004000430200084302000843020008430200087C
:10005000430200084302000843020008430200086C
:10006000430200084302000843020008430200085C
:10007000430200084302000843020008430200084C
:10008000430200084302000843020008430200083C
:10009000430200084302000843020008430200082C
:1000A000430200084302000843020008430200081C
:1000B000430200084302000843020008430200080C
:1000C00043020008430200084302000843020008FC
:1000D00043020008430200084302000843020008EC
:1000E00043020008430200084302000843020008DC
:1000F00043020008430200084302000843020008CC
:1001000043020008430200084302000843020008BB
:1001100043020008430200084302000843020008AB
:10012000430200084302000843020008430200089B
:10013000430200084302000843020008430200088B
:10014000430200084302000843020008430200087B
:10015000430200084302000843020008430200086B
:10016000430200084302000843020008430200085B
:10017000430200084302000843020008430200084B
:10018000430200084302000800F002F800F03CF8C7
:100190000AA090E8000C82448344AAF10107DA45E2
:1001A00001D100F031F8AFF2090EBAE80F0013F0F8
:1001B000010F18BFFB1A43F0010318476439000010
:1001C00084390000103A24BF78C878C1FAD85207A1
:1001D00024BF30C830C144BF04680C6070470000C1
:1001E0000023002400250026103A28BF78C1FBD840
:1001F000520728BF30C148BF0B6070471FB503F0DE
:10020000F7FB1FBD10B510BD02F014FA1146FFF741
:10021000F5FF02F0C3F802F032FA03B4FFF7F2FF81
:1002200003BC02F033FA0000094880470948004740
:10023000FEE7FEE7FEE7FEE7FEE7FEE7FEE7FEE796
:10024000FEE7FEE704480549054A064B70470000F3
:100250002F25000889010008B0050020B00B002000
:10026000B0070020B0070020F848016841F0010104
:100270000160F64A0021083211600268F44B1A400E
:100280000260031DF34A1A60F04BF34A84331A608C
:10029000F04A103A1B1D1A60026822F480220260A4
:1002A000EA480C300160181D01607047E7490022E0
:1002B000891C0A7008707047024600205109012904
:1002C0000CD002290CD0E1497431096802F01F02F8
:1002D000012393400B4200D001207047DB49F4E733
:1002E000DA497031F1E718B500204FF4A0440090CE
:1002F0003120FFF7E1FF0099491C0091A14201D094
:100300000028F5D03120FFF7D7FF002800D00120CA
:1003100018BDCE4A116821F0F80141EAC000106012
:100320007047CE4908607047C849002270310A7092
:100330000A70012802D0042801D1052008707047F6
:10034000C7490860704741EA82115A0810B5C54B89
:10035000029C03EB02421143014341EA0460BB49A2
:10036000091D086010BDBD4908667047800140EA5C
:100370000170B649843108607047B8498866704793
:10038000800140EA0160B14940EA027088310860AA
:100390007047B24908677047B049C8647047AB4BB3
:1003A00008331A68084322F0EC6210431860704763
:1003B000A64B08331A68084322F0784210431860AD
:1003C0007047A24A0832116821F00301014311600D
:1003D00070479E480830006800F00C0070479B4A48
:1003E0000832116821F0F001014311607047974A0B
:1003F0000832116821F4E051014311607047934ABB
:100400000832116821F4604141EAC0001060704771
:1004100070B58E4B08331968934C11F00C0104D061
:100420006610042903D0082903D004601BE006608D
:1004300019E0864A121D1168C1F38055116801F058
:100440003F0115B1B6FBF1F101E0B4FBF1F1146825
:100450001268C4F388146143C2F30142521C520073
:10046000B1FBF2F1016019680F2202EA11117F4A13
:10047000545C0168E14041601C68072505EA94244A
:10048000145D21FA04F484601B6805EA5333D25CDE
:10049000D140C16070BDC0F30121032908D16B4B6D
:1004A00008331968724A21F4F81102400A431A60AD
:1004B000664970310A68C0F30B0002430A60704756
:1004C000674944390860704765494039086070479A
:1004D0006249C1F85C0170475C4A8C32116821F4B2
:1004E0004011014311607047584A8C32116821F461
:1004F0004001014311607047544A8C321168401E1C
:1005000021F01F01014311607047504A8C3211687D
:100510006FF0FF0321F4F85103EB00200843106053
:1005200070474A4A8C32116821F44031014311600E
:1005300070475049C1F8E0017047444A3032002901
:10054000116801D0014300E08143116070473F4AC8
:1005500034320029116801D0014300E08143116069
:1005600070473A4A38320029116801D0014300E04F
:10057000814311607047354A40320029116801D02B
:10058000014300E0814311607047304A4432002942
:10059000116801D0014300E08143116070472B4A8C
:1005A00010320029116801D0014300E0814311603D
:1005B0007047264A14320029116801D0014300E037
:1005C000814311607047214A18320029116801D017
:1005D000014300E08143116070471C4A203200292A
:1005E000116801D0014300E0814311607047174A50
:1005F00024320029116801D0014300E081431160D9
:100600007047124A50320029116801D0014300E0BE
:100610008143116070470D4A54320029116801D09E
:10062000014300E0814311607047084A58320029B5
:10063000116801D0014300E0814311607047034A13
:1006400060320029116817D0014316E000380240DB
:10065000FFFFF6EA1030002400300020000047427F
:10066000800E47420000FFFF0024F400000000203D
:10067000FFFCFF0F00104742814311607047194A89
:100680000029116801D0014300E0814311607047E7
:1006900014490C310128086803D020F008000860D4
:1006A000704740F00800FAE70E4A573A00291178DF
:1006B00001D0014300E081431170704709481030B8
:1006C000016841F08071016070470146054A0020D1
:1006D000583A12680A4200D0012070470149563941
:1006E000087070476438024010B501214C0720465D
:1006F000FFF773FF2046BDE810400021FFF76DBFF4
:1007000030B54D4C236840F6FE7282409343D1E9E8
:1007100000252A43D1E902510D432A4382401A435E
:10072000226030BD0021016041608160C16070477E
:10073000414B01228240186809B1104300E0904308
:10074000186070473C4B1B1D020901209040002996
:10075000196801D0014300E08143196070473649B0
:10076000091D0028086802D040F0030001E020F0D5
:10077000030008607047304B814018680AB1084395
:1007800000E08843186070472B4A08B510440830D1
:100790000090016008BD284A08B51044143000904C
:1007A000016008BD082805D042EA0141224A1044F0
:1007B0000162704742EA0121F8E71F4908B501EBE1
:1007C00090002C300090006880B208BD1A4B9A143B
:1007D0008240186809B1104300E0904318607047E8
:1007E000154B814018680AB1084300E0884318603F
:1007F00070470246104B002034331B6891400B4277
:1008000000D00120704781400B48343001607047B0
:10081000094A0346002012689940074B0A403433C6
:100820001B680B4202D0002A00D001207047814093
:100830000148343001607047007400402DE9F043F6
:10084000016821F0010101600021016041608160C7
:10085000C160016121214161B849B84A3D25103983
:10086000904202D18D60BDE8F083B44A4FF47466C3
:100870001832904201D18E60F5E7B04A4FF47417F8
:100880003032904201D18F60EDE7AC4A4FF0746C8A
:100890004832904202D1C1F808C0E4E7A74BA84A09
:1008A0006033984201D1CA60DDE7A44CA54B78348F
:1008B000A04201D1CB60D6E7DFF88082A24C08F1DC
:1008C0009008404501D1CC60CDE7DFF870824FF051
:1008D0003D5908F1A808404502D1C1F80C90C2E783
:1008E0009A49DFF868820839404501D10D60BAE7BE
:1008F000964D1835A84201D10E60B4E7934D3035BE
:10090000A84201D10F60AEE7904D4835A84202D110
:10091000C1F800C0A7E78D4D8C496035091FA8427A
:1009200001D10A609FE7894A7832904201D10B6079
:1009300099E7864A9032904201D10C6093E7834A4E
:10094000A83290428FD1C1F800908CE730B503688F
:100950007F4ACC6813400A682243D1E905452C43FD
:100960002243CC6922430C6A22434C6A22438C6A9C
:1009700022434C6B22438C6B22431A430260426930
:1009800022F00703D1E90B2422431A4342610A698A
:1009900042604A6882608968C16030BD00210160A0
:1009A00041608160C160016141618161C161016239
:1009B00041628162C16201634163816370470029C2
:1009C000016802D041F0010101E021F00101016064
:1009D00070470029016802D041F4004101E021F490
:1009E0000041016070470029016802D041F02001F8
:1009F00001E021F0200101607047416070474068CC
:100A000080B27047002A026802D042F4002201E05E
:100A100022F400220260016170470029016802D0BF
:100A200041F4802101E021F48021016070470AB186
:100A300001617047C16070470146002009680903E1
:100A400000D501207047014600200968C90700D081
:100A500001207047406900F03800704702463B4B68
:100A600000209A4202D2354A103A01E0374A103A41
:100A70008B0001D5526800E01268364B1A400A42DA
:100A800000D001207047314A904202D22B481038E2
:100A900001E02E4810382F4A8B0001EA020101D5EF
:100AA000C1607047816070470B0607D5436912B17A
:100AB00043F0800301E023F080034361802908D0E4
:100AC000002A026801F01E0101D00A4300E08A43B7
:100AD0000260704730B51D4A0024904202D2174A86
:100AE000103A01E0194A103A1B4B194205D01E2357
:100AF00003EAD12503682B4002E0406900F080033F
:100B0000880001D5506800E01068124A1040084281
:100B100001D003B10124204630BD0C4A904202D2DC
:100B20000648103801E0094810380A4A8B0001EAEB
:100B3000020101D5C16070478160704710600240BA
:100B40003D000020400F002000003D2010640240C6
:100B50003F801CF07D0F7D0F3C0F3C0FFE4910B510
:100B6000884206D101210846FFF741FD00210120FE
:100B70005BE0B0F1804F09D0F84988420DD10121E6
:100B80000220FFF72AFD0021022070E00121084623
:100B9000FFF723FD0021012069E0F149884206D1D9
:100BA00001210420FFF719FD002104205FE0ED4939
:100BB000884206D101210820FFF70FFD00210820FF
:100BC00055E0E949884206D101211020FFF705FDD3
:100BD000002110204BE0E549884206D10121202068
:100BE000FFF7FBFC0021202041E0E149884206D1CB
:100BF00001210220FFF7FBFC0021022015E0DD4966
:100C0000884202D101210C040AE0DB49884202D16A
:100C100001214C0404E0D94988420AD101218C0405
:100C20002046FFF7E4FC00212046BDE81040FFF716
:100C3000DEBCD349884206D101214020FFF7CDFC1C
:100C40000021402013E0CF49884206D101218020B5
:100C5000FFF7C3FC0021802009E0CB4988420AD17C
:100C6000841501212046FFF7B8FC00212046BDE88D
:100C70001040FFF7B2BC10BD30B50288B64CBC4D79
:100C8000A0420DD0A8420BD0B0F1804F08D0B34B9A
:100C9000984205D0B24B984202D0B24B984203D151
:100CA00022F070034A881A43AF4B984206D0AF4BEC
:100CB000984203D022F440730A891A4302804A689A
:100CC000C2620A880285A04201D0A84201D1897A75
:100CD00001860121818230BD4FF0FF31416000214A
:100CE0000180018141808172704701858282704755
:100CF000028822F070020A43028070474162704706
:100D0000C1627047406A7047008D704700290188B2
:100D100002D041F0020101E021F0020101807047A0
:100D20000029018802D041F0040101E021F0040112
:100D3000018070470029018802D041F0800101E064
:100D400021F0800101807047028822F008020280B1
:100D500002880A4302807047028822F440720280AF
:100D600002880A43028070470029018802D041F0BE
:100D7000010101E021F001010180704730B5028CD2
:100D800022F001020284028C8388048B22F002028A
:100D900024F073050C882C438D8915434A882A4317
:100DA0006D4DA84202D0724DA8420DD122F0080527
:100DB000CA8923F440732A4322F004058A882A430F
:100DC0000D8A1D434B8A2B438380048389684163CA
:100DD000028430BD70B5028C22F010020284028CB5
:100DE0008388048B0D8824F4E6464FF6FF7404EAEA
:100DF000052535438E8922F0200204EA06161643A3
:100E00004A8804EA02123243534EB04202D0584E8E
:100E1000B04215D122F08006CA8923F4406304EA67
:100E20000212324322F040068A8804EA0212324358
:100E30000E8A04EA86061E434B8A04EA8303334380
:100E40008380058389688163028470BD70B5028CDC
:100E500022F480720284028C8388848B0D8824F0B3
:100E6000730425438E894FF6FF7422F4007204EA5E
:100E7000062616434A8804EA02223243364EB0421E
:100E800002D03B4EB04215D122F40066CA8923F449
:100E9000405304EA0222324322F480668A8804EA3C
:100EA000022232430E8A04EA06161E434B8A04EAE3
:100EB00003133343838085838968C163028470BDD3
:100EC00070B5028C22F480520284058C8288838B58
:100ED0000C8823F4E6464FF6FF7303EA04243443F8
:100EE00025F400568D8903EA053535434E8803EA1B
:100EF00006362E43184DA84202D01D4DA84205D1FA
:100F000022F480450A8A03EA82122A43828084837B
:100F100089680164068470BD002101804180818060
:100F200081608181C18101824182704730B5012495
:100F3000058C00F118038C40A543058431B30829C2
:100F40002CD0091FC1F34E001844016848F6FF7306
:100F50001940016001681AE00000014000040040EF
:100F600000080040000C0040001000400014004049
:100F7000000401400040014000440140004801409D
:100F800000180040001C00400020004006E04FF622
:100F9000FF7303EA02221143016030BD03EB5100ED
:100FA00001684FF68F73194001600168F3E74163F0
:100FB000704781637047C163704701647047028B5B
:100FC00022F070020A4302837047028B4FF6FF73D0
:100FD00022F4E04203EA0121114301837047828B2E
:100FE00022F070020A4382837047828B4FF6FF73B0
:100FF00022F4E04203EA0121114381837047028B0E
:1010000022F008020A4302837047028B4FF6FF73F7
:1010100022F4006203EA0121114301837047828BAD
:1010200022F008020A4382837047828B4FF6FF73D7
:1010300022F4006203EA0121114381837047028B8D
:1010400022F004020A4302837047028B4FF6FF73BB
:1010500022F4806203EA0121114301837047828BED
:1010600022F004020A4382837047828B4FF6FF739B
:1010700022F4806203EA0121114381837047028BCD
:1010800022F080020A4302837047028B4FF6FF73FF
:10109000C2F30E0203EA0121114301837047828BE0
:1010A00022F080020A4382837047828B4FF6FF73DF
:1010B000C2F30E0203EA0121114381837047028CBF
:1010C00022F002020A4302847047028C22F00802D6
:1010D0000A4302847047028C4FF6FF7322F020020D
:1010E00003EA0111114301847047028C4FF6FF732C
:1010F00022F0800203EA0111114301847047028C3F
:101100004FF6FF7322F4007203EA012111430184B8
:101110007047028C4FF6FF7322F4006203EA01214C
:10112000114301847047028C4FF6FF7322F4005282
:1011300003EA013111430184704710B50123048C87
:101140008B409C430484038C8A401343038410BD6A
:1011500010B50423048C8B409C430484038C8A4088
:101160001343038410BD828B22F440628283828BFE
:101170004FF6FF7303EA01210A4382837047828B93
:1011800022F00C028283828B0A4382837047028B97
:1011900022F440620283028B4FF6FF7303EA0121BF
:1011A0000A4302837047F0B5048C24F010040484D1
:1011B000078B068C4FF6FF7404EA011527F473477A
:1011C00004EA0331394304EA02220A4326F0A0016B
:1011D000294341F0100102830184F0BD028B22F00B
:1011E0000C020283028B0A43028370472DE9F0410F
:1011F0000C460E884988A288238905460EB3042E22
:1012000026D0082E2E8C4FF6FF7028D026F480565C
:101210002E84AF8B2E8C00EA022200EA013127F4E3
:1012200073473A4300EA0330104326F420420A434E
:1012300042F48051A8832984E1882846BDE8F04122
:1012400091E700F062F9E1882846BDE8F041C5E782
:10125000FFF7A9FFE1882846BDE8F04197E726F4AB
:1012600080762E84AF8B2E8C00EA012100EA0310D9
:10127000104327F0F307384326F420620A4342F470
:101280008071A8832984E1882846BDE8F04176E78B
:1012900000210180418001228280C180018170474C
:1012A0002DE9F0410C46002649880746012501B981
:1012B0000226A288012A00D102252088238900283D
:1012C000384610D0FFF76FFFE1883846FFF75FFF21
:1012D00023892A463146384600F017F9E188384616
:1012E000BDE8F0417AE700F010F9E1883846FFF7F1
:1012F00075FF23892A4631463846FFF754FFE188B7
:101300003846BDE8F04142E7406B7047806B70475C
:10131000C06B7047006C704710B50A884B88CC884A
:101320001A438B8823431A430B891A434B898989B3
:101330001A430A43A0F8442010BD002101804180D7
:101340008180C1800181418181817047002930F80D
:10135000441F02D041F4004101E0C1F30E010180BD
:1013600070470029818802D041F0040101E021F09A
:101370000401818070470029818802D041F0010179
:1013800001E021F0010181807047002A828901D0AB
:101390000A4300E08A438281704781827047024697
:1013A0000020128A0A4200D001207047C9430182FE
:1013B000704702460020138A92890B4202EA01021A
:1013C00002D0002A00D001207047C9430182704733
:1013D0001143A0F848107047002A828901D00A43BF
:1013E00000E08A43828170470029818802D041F061
:1013F000080101E021F0080181807047018921F096
:10140000070101817047028922F070020A430281BC
:10141000704700B50346FFF7F6FF188940F0070054
:10142000188100BD70B516460D46602904464FF080
:10143000010231460AD000F068F829462046FFF73D
:10144000E2FF208940F00700208170BDFFF7ABFE6E
:10145000F3E730B504894FF6FF7505EA032313431C
:10146000E4B20B432343038130BD10B50446FFF7BC
:10147000F0FF208940F07700208110BD10B50446B0
:10148000FFF7E7FF208940F48040208110BD82886B
:1014900022F07002828082880A438280704702892B
:1014A00022F00702028102890A4302817047028901
:1014B00022F08002028102890A430281704770B5DE
:1014C0000589048B068C25F007050D434FF6FC417A
:1014D0000C4040F201110C434FF6FF7101EA031179
:1014E00026F022061143314305810483018470BD37
:1014F0000029818802D041F0800101E021F08001C3
:1015000081807047A0F85010704770B5048C24F0AB
:1015100001040484058B048C4FF6FF7606EA03135E
:10152000134325F0F3052B4324F00A020A4342F04B
:1015300001010383018470BD10B501210C02204616
:10154000FFF755F82046BDE810400021FFF74FB8DF
:1015500030B54268C84B0C791A400B6842EA042245
:10156000134343608268C54B4D791A40D1E9034368
:1015700023438C6844EA4504234313438360C26ACF
:10158000097D22F47002491EC9B242EA0151C162CA
:1015900030BD00210160017141718160C160016154
:1015A000012101757047B64B10B5D3F80423B54936
:1015B0000A40D0E900142143D0E90240044321430A
:1015C0001143C3F8041310BD002101604160816024
:1015D000C16070470029816802D041F0010101E03B
:1015E00021F00101816070474268A74B1A400A430D
:1015F00042607047416282627047426822F01F0277
:101600000A43426070479E490028D1F8040302D083
:1016100040F4000001E020F40000C1F8040370472A
:1016200097490028D1F8040302D040F4800001E07B
:1016300020F48000C1F80403704770B5072609291B
:101640000AD9C568A1F10A0404EB4404A640B543D5
:10165000A3401D43C56007E0056901EB4104A640B6
:10166000B543A3401D4305611F23072A09D2446BDC
:10167000521E02EB820293409C4391400C43446310
:1016800070BD0D2A09D2046BD21F02EB8202934077
:101690009C4391400C43046370BDC46A0D3A02EB55
:1016A000820293409C4391400C43C46270BD8168A8
:1016B00041F08041816070470146002089684900FF
:1016C00000D5012070470029816802D041F4806173
:1016D00001E021F48061816070470029816802D0B7
:1016E00041F0020101E021F002018160704742688F
:1016F000491E22F4604242EA4131416070470029AC
:10170000416802D041F4006101E021F400614160D0
:101710007047C06C80B270475948D0F808037047D2
:101720000029816802D041F4807101E021F48071C8
:10173000816070470029816802D041F4007101E0A6
:1017400021F40071816070474D490028D1F80403ED
:1017500002D040F4005001E020F40050C1F804032E
:10176000704770B5072609290AD9C568A1F10A048E
:1017700004EB4404A640B543A3401D43C56007E005
:10178000056901EB4104A640B543A3401D43056133
:10179000836BC3F30154121B921C02EB82021F24C1
:1017A0009440A34391400B43836370BD826B491EF9
:1017B00022F4401242EA01518163704708B508449F
:1017C0000090026008BD826822F470220A438260A1
:1017D0007047826822F440120A4382607047816831
:1017E00041F4800181607047014600208968490208
:1017F00000D5012070470029416802D041F4806182
:1018000001E021F48061416070470029416802D005
:1018100041F4805101E021F480514160704708B5E6
:10182000084428300090006880B208BD01238B4036
:1018300041680AB1194300E099434160704702468C
:10184000002012680A4200D001207047C94301609D
:10185000704730B50246002053680C0A01258D40C0
:1018600011682B40214202D0002B00D0012030BD56
:101870006FEA112101607047FFFEFFFCFDF7FFC01A
:1018800000200140E030FCFFFFFD3FFF234810B582
:101890004168491C4160816811B18168491E8160BD
:1018A000AFF3008010BD10B51C4C2078002821D16A
:1018B0000120FEF7FBFCFEF716FD0028FBD01848C0
:1018C00001684FF47A70B1FBF0F0401EB0F1807FF8
:1018D00011D24FF0E0225061124BF02083F8140D2A
:1018E00000209061072010610F48B1FBF0F0E0602C
:1018F0000120207010BDFEE708480078002805D0C0
:101900004FF0E020016941F00201016170474FF0A2
:10191000E020016921F00201016170471000002000
:10192000F80000200FE000E0C0C62D001CB500202C
:101930000321CDE9000103464FF470440122214602
:10194000184800F069FB17481A3004801CBD1CB50C
:1019500000210220CDE900010B460A460121124870
:1019600000F05AFB1CBD10480069C1070F4805D0A4
:10197000017829B9012101700846704700210170E2
:101980000020704708480069C107084803D00121BA
:1019900001700020704701780029FAD00021017001
:1019A00001207047000C024000000240200000208F
:1019B0001CB5B1F1804F0ED0884A91420BD0884AB5
:1019C000914208D0874A914205D0874A914202D07D
:1019D000864A914212D1864A42F820100121083AE3
:1019E000115468B1202100200222CDE900020346F3
:1019F0000322804800F010FB00201CBD02201CBD0B
:101A00001021F0E72DE9F0410446794817462DED05
:101A1000028B08389CB0005DB0EE408AF0EE608A20
:101A20008846E8B3724E56F82400B0F1804F04D0D7
:101A30006A49884203D12C2114E0242112E068492C
:101A4000884201D11C210DE06649884201D1042160
:101A500008E06549884201D1142103E063498842C6
:101A600026D10C210F9113A900F0CCF8384601F0D3
:101A70007BFD53EC182B01F0C7FD41EC100B13A8B4
:101A800000F003F9189858B15B48016841F0005123
:101A9000016059481038016841F40011016000E00C
:101AA0000CE000251095129554B1012C0BD00EE0DE
:101AB00002201CB0BDEC028BBDE8F0810120F8E7EC
:101AC0000FA9002001E00FA91020FEF719FE56F81B
:101AD000240000F02FF919A8FFF7FEF81698ADF8CA
:101AE0006C50401E1A90179819A9401EADF864005A
:101AF000ADF8665056F82400FFF7BEF856F82400FB
:101B00002021FFF7C4FC4020CDF80880CDE9030771
:101B10000001CDE905504000079080000890401179
:101B200009904002CDE90A050120CDE90C050E958A
:101B30004FF0606514B1012C2FD115E02F48304FC4
:101B400001903846FEF77AFE694638460095FEF762
:101B5000FDFE01213846FEF732FF01210020FEF78D
:101B6000E7FD0121002016E0254F18373846FEF723
:101B700065FE224869460C30CDE900503846FEF734
:101B8000E5FE01213846FEF71AFF01211020FEF77D
:101B9000CFFD01211020FEF719FE56F82400018820
:101BA00041F001010180002083E739B101290DD006
:101BB000022907D003290DD0012070470C492022AB
:101BC00008310AE00A492022883106E0084920222B
:101BD000483102E006490222891F13E7000800404D
:101BE000000C0040001000400014004000040140C0
:101BF0002C000020000002404038024008740040E1
:101C0000886002407FB504460D466846FEF700FC3A
:101C10004FF6FF70A860B4F1804F02D0AC498C42FF
:101C200005D1039828604FF0FF30686028E0A9498B
:101C30008C420BD0A8498C4208D0A8498C4205D0D0
:101C4000A7498C4202D0A7498C4201D1019915E0E5
:101C5000A5498C4211D0A5498C420ED0A4498C4292
:101C60000BD0A4498C4208D0A3498C4205D0A3498B
:101C70008C4202D0A2498C4205D10399C5E90010DB
:101C8000002004B070BD0220FBE72DE9F0470446B8
:101C90002DED028BB0EE408AF0EE608A00250068E0
:101CA00001F062FC53EC182B01F072FC07D22561A5
:101CB000E56003206561BDEC028BBDE8F0879FED18
:101CC000910B51EC180B53EC102B01F09DFB03D141
:101CD0002561E560656124E06068B0F5803F01D270
:101CE000401C60602561D4E901862768A946761CFE
:101CF0006D1CB7FBF5F001F037FC53EC182B01F02D
:101D00002BFA01F0EDFBC4E90305404501D9B542CA
:101D1000EED9B54207D9C4F81090C4F80C90C4F8B5
:101D200014900420C7E751EC180B01F0D9FB606157
:101D30000020C0E76749754A884203D1116841F025
:101D4000010111607149091FB0F1804F55D0664BF8
:101D5000984203D10B6843F002030B60634B984237
:101D600003D10B6843F004030B60594B984203D135
:101D70000B6843F008030B605D4B984203D10B687E
:101D800043F010030B605B4B984203D10B6843F0A8
:101D900020030B60504B984203D1136843F00203B9
:101DA00013604E4B984203D1136843F480331360A1
:101DB0004B4B984203D1136843F400331360494BF3
:101DC000984203D1136843F4802313604A4A904237
:101DD00003D10A6842F040020A60484A904203D1A7
:101DE0000A6842F080020A60454A904203D10868BE
:101DF00040F48070086000207047086840F00100DF
:101E0000F8E73449414A884203D1116821F00101C1
:101E100011603E49091FB0F1804F55D0324B9842B6
:101E200003D10B6823F002030B60304B984203D1BF
:101E30000B6823F004030B60254B984203D10B6819
:101E400023F008030B602A4B984203D10B6823F060
:101E500010030B60274B984203D10B6823F020033B
:101E60000B601D4B984203D1136823F002031360EB
:101E70001A4B984203D1136823F480331360184B34
:101E8000984203D1136823F400331360154B984232
:101E900003D1136823F480231360174A904203D1BF
:101EA0000A6822F040020A60144A904203D10A688C
:101EB00022F080020A60124A904203D1086820F49E
:101EC0008070086000207047086820F00100F8E783
:101ED000000C0040000001400004014000400140AF
:101EE0000044014000480140000400400008004058
:101EF000001000400014004000180040001C00408A
:101F000000200040000000000000000044380240B3
:101F10002DE9F04F8A46DDE9099C00214FF0010BC5
:101F20004FF0030E0BFA01F515EA0A0F1FD00768F0
:101F30004C000EFA04F6B74302FA04F847EA080721
:101F40000760012A01D0022A0BD14768AF4303FA88
:101F500001F52F43476085680CFA04F7B5433D430C
:101F60008560C568B54309FA04F63543C560491C68
:101F7000C9B21029D6D3BDE8F08FB04AB04990421B
:101F800003D10A6842F001020A60AE4A904203D1CE
:101F90000A6842F002020A60AB4A904203D10A6822
:101FA00042F004020A60A94A904203D10A6842F052
:101FB00008020A60A64A904203D10A6842F0100261
:101FC0000A60A44A904203D10A6842F020020A60E3
:101FD000A14A904203D10A6842F040020A609F4A37
:101FE000904203D10A6842F080020A609C4A904203
:101FF00003D10A6842F480720A609A4A904203D17F
:102000000A6842F400720A60974A904203D1086855
:1020100040F4806008607047FCB51646DDE907C5EE
:102020000C00074608D0FFF7A8FFCDE900C53246EF
:1020300021463846FFF76CFFFCBD2DE9FC4F994661
:10204000DDE90BB792460D00064622D0FFF795FF5B
:10205000002201214FF00F0C01FA02F028420DD0AE
:10206000D00806EB8003186A5407E40E0CFA04F853
:1020700020EA080007FA04F420431862521C102AD0
:10208000EAD3CDE9009B5346022229463046FFF7AA
:102090003FFFBDE8FC8FF0B500220125032605FABD
:1020A00002F30B4205D00468570006FA07F31C43FD
:1020B0000460521CD2B2102AF1D3F0BDF0B5002258
:1020C0000125032605FA02F30B4205D004685700E8
:1020D00006FA07F39C430460521CD2B2102AF1D3D3
:1020E000F0BDF0B500220127032607FA02F33C46B3
:1020F0000B4208D00568530006FA03FC25EA0C05DC
:102100009C4025430560521CD2B2102AEDD3F0BD8D
:10211000F0B500220125032605FA02F30B4205D093
:102120000468570006FA07F31C430460521CD2B23D
:10213000102AF1D3F0BD0146424A0020914200D15D
:102140000120414A914200D10220404A914200D1EF
:1021500003203F4A914200D104203E4A914200D1DF
:1021600005203D4A914200D106203C4A914200D1CF
:1021700007203B4A914200D108203A4A914200D1BF
:102180000920394A914200D10A207047002102E01B
:10219000491C89B240080128FAD808467047274AE6
:1021A0002749904203D10A6822F001020A60254AB9
:1021B000904203D10A6822F002020A60224A904249
:1021C00003D10A6822F004020A60204A904203D137
:1021D0000A6822F008020A601D4A904203D10A6888
:1021E00022F010020A601B4A904203D10A6822F0D2
:1021F00020020A60184A904203D10A6822F0400285
:102200000A60164A904203D10A6822F080020A60EE
:10221000134A904203D10A6822F480720A60114A7C
:10222000904203D10A6822F400720A600E4A90427A
:1022300003D1086820F48060086070470000024005
:10224000303802400004024000080240000C024006
:10225000001002400014024000180240001C02401E
:10226000002002400024024000280240884201D39E
:10227000401A7047C94308447047F0B5012199B02E
:102280008805FEF75AF9664F3846FEF7D7FA6846D2
:10229000FEF784FB6348019063480024CDE9020403
:1022A0007815CDE9040440000690400007908000B6
:1022B0004611CDE9080601250001CDE90C540A902C
:1022C000694638460E94FEF741FB01213846FEF779
:1022D00076FB01213046FEF758F98DF841508DF814
:1022E00050508DF840504F4D13944C3D1294119422
:1022F0000FA928460F94FFF72BF90920B10115907B
:1023000016AA880082E8130015A8FFF74CF90122ED
:10231000032311462846FFF790F900212846FFF7CE
:10232000EEF901212846FFF7CEF901212846FFF7F3
:1023300001FA01212846FFF7F3F901212846FFF7AA
:1023400049F919B0F0BD70B53E4D00242DED068B56
:102350009FED368B9FED379B9FED38AB204601F00C
:1023600003F953EC182B01F04FF953EC192B01F042
:102370004BF941EC100B00F0ABF953EC1A2B51EC7C
:10238000100B01F041F901F0ABF825F81400641CC2
:10239000A4B2202CE2D3BDEC068B70BD1CB500F0BE
:1023A000C6F8FFF780FAFFF7C1FAFFF7CCFF26491E
:1023B0000020FFF7FDFA25490120FFF7F9FA9FED0C
:1023C000240B4FF4007218490020FFF71BFB9FED10
:1023D000220B20221B490120FFF714FB01210220C0
:1023E000CDE900010146002303221D48FFF714FE3A
:1023F000FFF743FF0B484C38FFF759F9194C1A4BBC
:102400001A4A4FF47A7521681868FFF72FFFA8421F
:10241000F9D318682060106880F480501060F2E7EB
:10242000106402404C2001400C0100201F85EB513C
:10243000B81E0940000000000000A03F000000009E
:102440000000B0400C05002000080040000C0040D7
:102450000000000000888340000000000088C340A6
:1024600000000240F400002014000020140C024080
:102470007047FEE7FEE7FEE7FEE7704770477047EC
:10248000704710B5FFF702FA10BD00000CB500222E
:10249000544900920192086840F4803008604FF47B
:1024A000A043086800F4003001900098401C0090A0
:1024B000019810B900989842F3D10868800334D588
:1024C0000120019047484030026842F0805202608B
:1024D0004548026842F440420260424808300268BF
:1024E0000260026842F400420260026842F4A052B4
:1024F0000260031F3D4A1A600A6842F080720A6057
:102500000A689201FCD53A4940F205720A600168F6
:1025100021F003010160016841F0020101600168DE
:10252000C1F381010229FAD10CBD01920CBD3148E1
:1025300010B5016841F4700101602A48016841F05A
:1025400001010160274A00210832116002682A4B0C
:102550001A400260031D294A1A60026822F4802290
:10256000026020480C300160FFF790FF21494FF0D6
:1025700000608039086010BD70B51A4D08352868B4
:102580001F4B204910F00C0004D05E10042803D02B
:10259000082803D00B601BE00E6019E0114A121DE1
:1025A0001068C0F38054106800F03F0014B1B6FB0F
:1025B000F0F001E0B3FBF0F013681268C3F3881386
:1025C0005843C2F30142521C5200B0FBF2F00860C3
:1025D00028680C4AC0F30310121D105C0A68C24040
:1025E0000A6070BD00380240007000400854400787
:1025F000003C024088ED00E0FFFFF6FE10300024B2
:102600000024F400F800002070477047704710B5B0
:1026100000F008F8006810BD10B5044600F002F89C
:10262000046010BD004870474C050020004870470A
:102630004C0500207546FFF7F9FFAE4605006946D8
:10264000534620F00700854618B020B5FDF7FAFD87
:10265000BDE820404FF000064FF000074FF00008A3
:102660004FF0000B21F00701AC46ACE8C009ACE824
:10267000C009ACE8C009ACE8C0098D467047044603
:10268000AFF300802046FDF7C8FD00000149182087
:10269000ABBEFEE726000200704703B4019841007C
:1026A000009850EAC12018BF04204A0D18BF40F01E
:1026B000010040F2FF72B2EB515F08BF40F0020030
:1026C000012808BF052002B070470000000000008C
:1026D00010B52F499FED2C1B2DED020B84B00598F2
:1026E00020F000408842DCBF00209DED040B32DD6D
:1026F0002849884209D1049840B94FF00100FFF7FA
:102700008BFF00F03DFC06B010BD05DB9DED040B1A
:1027100000F02AFC06B010BD68469DED040B00F0E9
:102720003BF810F0030011D0012818D09DED021BDA
:102730009DED000B02281AD000F04AFA51EC100B64
:1027400000F04AFC06B041EC100B10BD9DED021BE1
:102750009DED000B012000F06FFB06B010BD9DED5C
:10276000021B9DED000B00F033FA06B010BD0120F6
:1027700000F062FB51EC100B00F02EFC06B041ECB7
:10278000100B10BD00000000000000000000000061
:10279000FB21E93F0000F07F2DE9F14F04462DEDCC
:1027A000020B2DED088B8AB09FEDE70B80ED020B3D
:1027B000139EE74826F0004585420ADC9DED120B8A
:1027C000002084ED000B0AB0BDEC088B03B0BDE81F
:1027D000F08FE0489FEDE0AB9FEDE1BBA84247DD05
:1027E000E14F9FEDE39B9FEDE48B9DED120B53ECCE
:1027F0001A2B51EC100B002E1CDD01F00FF841ECF0
:10280000100BBD4208D053EC1B2B51EC100B01F008
:1028100005F8C4E900010BE053EC192B51EC100B47
:1028200000F0FCFF53EC182B00F0F8FFC4E90001A6
:102830000120C8E700F0DCFB41EC100BBD4208D0E2
:1028400053EC1B2B51EC100B00F0D2FBC4E9000140
:102850000BE053EC192B51EC100B00F0C9FB53ECBF
:10286000182B00F0C5FBC4E900014FF0FF30AAE7C8
:10287000C348A84279DB9DED120B51EC100B00F020
:102880009FFB41EC180B9FEDC00B53EC102B00F09D
:10289000BBFE9FEDBF1B53EC112B00F0A9FB00F01A
:1028A000EFFD074600F049FE41EC190B53EC1A2BE3
:1028B00000F0AAFE53EC182B00F0A4FF41EC180B1B
:1028C00053EC1B2B51EC190B00F09EFEDFF8C8A255
:1028D00041EC100B4FEA15580125FA4453EC102B2C
:1028E00051EC180B00F09AFF032DC4E900013DD014
:1028F000C1F30A5005EB4511A8EB000011398142E4
:1029000034DA0AEB051BB0EE48AA9BED000BF0EEA3
:1029100068AA53EC102B51EC190B00F075FE41EC3A
:102920001B0B51EC1A0B53EC1B2B00F077FF41EC07
:10293000180B51EC1A0B53EC182B00F06FFF53ECF3
:102940001B2B00F06BFF9BED020B41EC1A0B53ECC1
:10295000102B51EC190B00F057FE53EC1A2B00F022
:102960005DFF41EC100B6D1CB8E70EE0002EA8BF18
:102970003846BFF628AF94ED000B51EC100B00F079
:102980002BFBC4E9000178421DE7C6F3130040F4B5
:10299000801EC6F30A50A0F2F530471100F01F0563
:1029A000C5F12000DDF848B008900020069007909F
:1029B0000520EC467949002D07EB0002794408BF59
:1029C00051F8221009D051F8223001EB8201AB40BE
:1029D0004A68089922FA01F11943A1FB0E26A1FBCE
:1029E0000B131A449A4234BF0123002303EB060859
:1029F0000CEB8003D3E901A60E448E4234BF0121C3
:102A0000002192448A4411B1924502D903E09245D3
:102A100001D2012100E00021C3E901A641444CF8A4
:102A20002010011EA0F10100C4DC029800F100504A
:102A3000850F0298DDE903678000DDF8148000F05F
:102A40007CFD41EC1A0B304600F08EFD9FED541BCF
:102A500053EC112B00F0D8FD41EC1B0B384600F075
:102A600083FD9FED511B53EC112B00F0CDFD41EC8C
:102A7000180B404600F078FD9FED4D1B53EC112BD9
:102A800000F0C2FD41EC190B51EC180B53EC192B63
:102A900000F0AEFA53EC1B2B00F0AAFA53EC1A2B01
:102AA00000F0A6FACDE90801002008909DED080B82
:102AB00053EC1A2B51EC100B00F0B0FE53EC1B2B17
:102AC00000F0ACFE53EC182B00F0A8FE53EC192BD1
:102AD00000F098FE9FED381B53EC112B00F094FD95
:102AE0009FED370B41EC180B53EC102B9DED080BB1
:102AF00051EC100B00F088FD53EC182B00F078FA25
:102B00009FED310B41EC180B53EC102B9DED080B96
:102B100051EC100B00F078FD53EC182B00F068FA24
:102B200041EC100B139810F0004F06D06D4251ECA1
:102B3000100B00F051FA41EC100B284684ED000B0D
:102B400041E600000000000000000000000000005E
:102B5000FB21E93F7CD9024000004054FB21F93FB2
:102B60003163621A61B4D03DFB21F93F00000000DF
:102B70000000601A61B4D03D7370032E8A19A33B24
:102B8000FB2139410000000083C8C96D305FE43F7C
:102B9000000000000000E03F52110000A010000003
:102BA000000000000000103E000000000000103C8B
:102BB000000000000000103A182D4454FB21F93D9C
:102BC0003326A611460B113C00000054FB21F93DB1
:102BD00010B52DED040B2DED088B82B0B0EE419AAF
:102BE000F0EE619A0B9820F000449FED4BABB4F1EE
:102BF000795F11DA9DED0A0B51EC100B00F040FCEF
:102C0000002801BFB0EE4A0AF0EE6A0A02B0BDEC3D
:102C1000088B04BF04B010BD9DED0A0B53EC102BC4
:102C200051EC100B00F0F0FC41EC180B3C48062175
:102C3000B0EE480AF0EE680A784400F081F853ECF0
:102C4000182B51EC100B00F0DFFC9DED0A0B41EC52
:102C50001B0B53EC192B51EC100B00F0D5FC41EC85
:102C6000190B53EC1B2B51EC180B00F0CDFC53EC63
:102C7000192B00F0D3FD9FED2C0B41EC190B53ECFD
:102C8000102B51EC180B00F0BFFC41EC100B284846
:102C9000844210DA53EC192B51EC100B00F0BEFDFE
:102CA00053EC1A2B00F0AEFD41EC100B02B0BDEC62
:102CB000088B04B010BD1F48A042BCBF9FED1E1B77
:102CC0008DED001B06DBA4F50010019000200090A4
:102CD0009DED001B51EC100B53EC112B00F09EFDF1
:102CE0009DED000B41EC180B53EC102B51EC1A0B23
:102CF00000F094FD41EC1A0B53EC192B51EC180B1E
:102D000000F08CFD53EC1A2B00F07CFD41EC100B15
:102D1000CCE7000000000000000000000000F03FD1
:102D2000C40D000000000000000000000000E03FB3
:102D30003333D33F0000E93F000000000000D23FE2
:102D400070B504462DED028B4D1E00EBC500B0EEB4
:102D5000408AF0EE608A90ED000B35F0060017D047
:102D600053EC182B51EC100B00F04EFC41EC100B07
:102D70006D1E04EBC50090ED001B51EC100B53ECE5
:102D8000112B00F035F941EC100B35F00600E7D1BE
:102D9000022D36D0042D1CD0062D1CBFBDEC028B9D
:102DA00070BD53EC182B51EC100B00F02DFC94ED82
:102DB0000A1B53EC112B00F01BF953EC182B00F0FD
:102DC00023FC94ED081B53EC112B00F011F941EC9E
:102DD000100B53EC182B51EC100B00F015FC94ED7C
:102DE000061B53EC112B00F003F953EC182B00F0E9
:102DF0000BFC94ED040B53EC102B00F0F9F841ECB4
:102E0000100B53EC182B51EC100B00F0FDFB94ED64
:102E1000021B53EC112B00F0EBF853EC182B00F0D5
:102E2000F3FB94ED001B53EC112B00F0E1F8BDEC2B
:102E3000028B41EC100B70BD31B504462DED040B37
:102E40002DED0A8BB0EE41BAF0EE61BA0B989DED14
:102E50000A0B20F00040B0F1795F0DDA51EC100B55
:102E6000FFF71BFC042808BF00F09AF89DED0A0B41
:102E7000BDEC0A8B05B030BD53EC102B51EC100BA0
:102E800000F0C2FB41EC180B9DED0A0B53EC182B24
:102E900051EC100B00F0B8FB41EC190B2C48B0EED4
:102EA000480AF0EE680A05217844FFF749FF9FEDD4
:102EB0002ACBB0EE40AAF0EE60AA9CB353EC1C2BD8
:102EC00051EC190B00F0A0FB41EC1C0B53EC1A2B3E
:102ED00051EC190B00F098FB9FED210B41EC190B05
:102EE00053EC102B51EC1B0B00F08EFB53EC192B09
:102EF00000F094FC53EC182B00F086FB53EC1B2BDA
:102F000000F08CFC53EC1C2B00F088FC9DED0A1BA0
:102F100053EC112B00F076FCBDEC0A8B05B041ECB4
:102F2000100B30BDFFE753EC1A2B51EC180B00F0DF
:102F30006BFB53EC1C2B00F05BF853EC192B00F0EF
:102F400063FB9DED0A1B53EC112B00F051F8E3E7F6
:102F50004C0C000000000000495555555555C5BFA3
:102F6000000000000000E03F10B553EC102B51ECC6
:102F7000100B00F03DF841EC100B10BD00000000FC
:102F80009FED050B10B553EC102B51EC100B00F01E
:102F9000E3F841EC100B10BD000000000000000041
:102FA0009FED050B10B553EC102B51EC100B00F0FE
:102FB0002BFB41EC100B10BD0000000000000010C6
:102FC00082B0CDE9000121F0004001909DED000BA1
:102FD00002B051EC100B704781F00041704780F057
:102FE0000040704721F00041704720F000407047DA
:102FF00010B591EA030F48BF83F0004300F1168437
:10300000841A71EB030C05D2121943EB0C03001B5D
:1030100061EB0C01DFF824E14FEA1154A4EB135CDF
:103020001EEA430F18BF9EEA445F73D023EA0E03E3
:10303000DCF1200E21EA045143F4801332D322FA4A
:103040000CFE10EB0E0023FA0CFE41EB0E01CCF14E
:10305000200E03FA0EFE10EB0E0051F10001B1F547
:10306000801FCCF1200E32D201EB045112FA0EF285
:10307000BDE8104058BF7047401C38BF5FEA4202AD
:1030800018BF7047002814BF20F0010041F1000173
:103090004FEA410313F5001F38BF7047A1F1C0414B
:1030A00000F0AABB012A43EB0302ACF1200CDCF1D7
:1030B0001F0E32BF4FF0000E23FA0CF310EB03008B
:1030C00041EB0451B4EB115FD0D0A1EB045101F5F9
:1030D000801149085FEA300001EB04510ED350F132
:1030E000000038BF12FA0EFE08D1BDE81040C9E753
:1030F000401C38BF5FEA4202CAD1C3E7BDE81040B6
:103100004FEA410313F5001F38BF7047A1F1C041DA
:1031100000F072BB9EEA445F08D011EA5E0FBDE882
:10312000104004BF01F0004100207047BDE810408E
:1031300070B500F013FB00BF64FBBE3E0000E0FF73
:10314000491058BFC1F140415B1058BFC3F1404323
:103150008B42EFF3008070472DE9C04130B4DFF8B7
:10316000A0C23CEA111418BF3CEA131400F0EC8032
:1031700081EA03051CEA111444EAD57418BF1CEA5D
:10318000131500F0C780A4EB05044FF0004545EA95
:10319000C12145EAC32341EA505143EA525304F1A5
:1031A0007F74994204F500344FEAC0204FEAC222EE
:1031B00008BF904200F09C804FEA13650FF2401662
:1031C000765D4FEA134506FB05F7C7F1807706FBEE
:1031D00007F74FEAD737A7FB03687642C8F5803870
:1031E000A7FB06CE38BFA8F1010807FB08E64FF0A1
:1031F000000EA6FB028CE6FB03CEDCF1000CCEF148
:10320000004E38BFAEF1010EA6FB0C584FF0000780
:103210004FF00005E6FB0E87A1FB08C6A0FB07CE1A
:1032200016EB0E0645F10005E1FB076515F1E04ED2
:103230007EBFA4F580345FEA46066D4116F1800733
:1032400045F100054FEA17274FEA066647EA05678A
:10325000A6F1DE46B6F1805F4FEA15251FD9384644
:1032600024F0010C05EBC471BCF1FE6F01EB0C11F5
:1032700002D8F0BCBDE8008124425CBF01F5801E8D
:103280009EEAC47F02D4F0BCBDE80081244238D459
:10329000F0BCA1F1C041BDE8004100F0ADBA4FEA79
:1032A000D22242EA43524FEAD323A7FB02864FEAD7
:1032B000D02040EA415007FB03661EEA0E0F4FEA9A
:1032C000D12105FB026658BFA6EB0056B6EB0056AF
:1032D0004FEA520E4EEAC37E18EB0E0E56EB530E1B
:1032E000BDD518EB02085E417F1C55F10005B6E71D
:1032F0004FF480154FF000074FF000064FF0000824
:10330000ADE7F0BC4FF0000001F1C04101F0004119
:10331000BDE8008111EA0C1F0CEA131500D00CE087
:1033200013EA0C1F00F025804FF00000F0BC81EA8A
:10333000030101F00041BDE80081F0BCBDE800419F
:1033400081EA030100F058BAF0BCBDE8004170B555
:1033500000F004FA097EFC3E00F007B881EA0301A0
:103360004FF0000001F00041704781EA030100F0D6
:1033700043BAF0BCBDE800414FF00000214970475E
:10338000FFFDFBF9F7F5F4F2F0EEEDEBE9E8E6E42A
:10339000E3E1E0DEDDDBDAD8D7D5D4D3D1D0CFCDB1
:1033A000CCCBCAC8C7C6C5C4C2C1C0BFBEBDBCBBEA
:1033B000BAB9B8B7B6B5B4B3B2B1B0AFAEADACABE5
:1033C000AAA9A8A8A7A6A5A4A3A3A2A1A09F9F9EBF
:1033D0009D9C9C9B9A999998979796959594939371
:1033E000929191908F8F8E8E8D8C8C8B8B8A898908
:1033F000888887878685858484838382828181808B
:103400000000FF070000F87F51EA030C17D41CF5F9
:10341000801F58BFBCF5801F00F10680994218BF7D
:10342000704708BF9042704707D711F5801F58BFFB
:1034300013F5801F19D499427047894270471CF5D3
:10344000801F08D5BCF5801FF7D58B4218BF704789
:1034500008BF824270474FF4001C1CEB410F38BF7D
:103460001CEB430F01D28B42704770B500F076F928
:10347000922449004FF000514FF08053FFF760BE97
:103480004FEA41034FEA5353A3F58063D3F11E0380
:10349000C8BFD3F1210C0CDD4FF0004242EAC1223B
:1034A00042EA505232FA03FC8CEAE17CACEBE17068
:1034B0007047102BC4BF0020704703F5787CBCF127
:1034C000FF3F04D06FF0004282EA2100704770B5E0
:1034D00000F044F94992248000207047F2E7000090
:1034E0004FEA1153A3F58063D3F11E03A8BFD3F1B4
:1034F000200C08DB4FF0004242EAC12252EA50524F
:1035000032FA03F0704709420BD4102BC4BF0020DD
:10351000704703F5787CBCF1FF3F05D04FF0FF30DA
:1035200070474FF00000704770B500F017F900BF0A
:103530004992248000207047F0E710F0004248BF15
:103540004042B0FA80F310FA03F10AD0C3F11D0330
:1035500003F580634FEA415002EB035202EBD121A5
:1035600070474FF000007047B0FA80F310FA03F193
:103570000AD0C3F11D0303F580634FEA41504FEABF
:10358000035202EBD12170474FF00000704700005A
:1035900051EA030C17D41CF5801F58BFBCF5801FDF
:1035A00000F10680994218BF704708BF90427047EB
:1035B00007D711F5801F58BF13F5801F19D4994202
:1035C0007047894270471CF5801F08D5BCF5801FE5
:1035D000F7D58B4218BF704708BF824270474FF43F
:1035E000001C1CEB410F38BF1CEB430F01D28B4278
:1035F000704770B500F0B2F8922449004FF00051C6
:103600004FF08053FFF79CBDDFF848C170B51CEA4E
:10361000111E1EBF1CEA13159EEA0C0F95EA0C0F33
:1036200000F06F8081EA030423EA4C134EEAD47E53
:1036300021EA4C1141F4801143F48013AE44A1FB04
:10364000024CA0FB0365AEF17F7E361955EB0C05ED
:10365000A1FB034C4CF10003A0FB021C16EB0C0673
:10366000654153F10003094218BF46F0010613F407
:10367000007F0BD14FEA03314FEA0530340341EAB2
:10368000155140EA16506FF003020AE04FEAC321D9
:103690004FEAC520F40241EA555140EA56506FF016
:1036A000020202EB2E4201EB025585EACE710AD0EE
:1036B0005FEA440C18BF24F0004450F1000041F1CF
:1036C000000120EAD47040F2FE7C624500D270BD59
:1036D000A84214BF4FF080444FF04044002E08BF72
:1036E0000024BEF1806FA8BFA1F1C041BDE87040C9
:1036F00080F282804FF0000001F1C04101F00041F2
:1037000070479EEA0C0F0CEA131518BF95EA0C0FD0
:1037100006D04FF0000081EA030E0EF0004170BDAC
:1037200000F01CF88900013E00F007B800F009B86D
:103730004FEA430C5FEA5C5C08D081EA030100F0C9
:103740005BB84FEA410C5FEA5C5CF6D14FF00000D9
:10375000014970470000FF070000F87F0EF1020EDC
:103760002EF0030E5EF8046B364205D4012A43EBBB
:10377000030515F5001F12D8012841EB010C1CF5BB
:10378000001F0CD80ED14FEAD17C15F5001F0CEBB1
:103790004C0C0CF1020C08BF4CEBD37C04E04FF056
:1037A000080C01E04FEAD37C0CEB4C0526FA05F639
:1037B00006F00706B6F1040C06D20EEB860CBDE847
:1037C00070404CF0010C6047DFE80CF0090B02027E
:1037D0004FF000414FF00000A1F5002170BD1946E7
:1037E0001046012851EB010418BFD4F5001484BF22
:1037F000002001F0004170BD0808A0F500114FEA5B
:103800003101704791EA030F10B581F000413FF597
:10381000F7AB83F0004300F009B8000010B591EA5F
:10382000030F48BF83F000433FF5EAAB841A71EB06
:10383000030C07D212198CF0004C43EB0C03001B55
:1038400061EB0C01DFF8A4E14FEA1154A4EB135C27
:103850001EEA430F18BF9EEA445F00F0B08023EADF
:103860006E03524221EA0451C3EB6E0338BF5B1E64
:10387000DCF1200E25D322FA0CFE10EB0E0043FAE9
:103880000CFE41EB0E01CCF1200E03FA0EFE10EB04
:103890000E0051F10001CCF1200E29D412FA0EF2E3
:1038A00001EB0451BDE8104058BF7047401C1CBFDD
:1038B000B2F1004F704700280CBF491C20F00100F6
:1038C000704712EB020E43EB030218BF4FF0010EDC
:1038D0004EEA4202ACF1200CDCF11E0E54D943FA40
:1038E0000CFE10EB0E0051F1FF31CCF11E0ED5D5C0
:1038F0000EF1010E12FA0EFE404141EB010101EB07
:10390000445C5FEA5C5C10D910EBDE7001EB0451A3
:1039100038BFBEF1004FBDE8104018BF7047002807
:103920000CBF491C20F00100704730D24FEAD42C64
:1039300011F5001124F400641BD0B1FA81F20B3AA6
:10394000A41AA41ED2F12003914030FA03F31943C4
:10395000904001EBCC71002C01EB0451BDE810400C
:10396000A8BF704701F1C0414FF0000001F00041D5
:103970007047B0FA80F310FA03F100D110BDE41AD9
:10398000173C4805C90AE4E701EB045110BD491092
:1039900001EB0451BDE810404FEA300002E04FF067
:1039A000000170474A0008BF0042F8D0B2F5001F7E
:1039B00028BF704701F000414FF0000070479EEAB9
:1039C000445F07D011EA5E0FBDE8104004BF00213C
:1039D00000207047BDE8104070B5FFF7BFFE00BF84
:1039E00040DFF63E83F00041104670470000E0FFE4
:1039F0004FF04070E1EE100A704700000000000038
:103A00004C5555555555A53F7751C1166CC156BFFC
:103A10009015CB19A001FA3EAD529C804F7E92BE0C
:103A2000C4B1B4BD9EEE213ED43888BEE9FAA8BD2B
:103A300000004054FB21F93F3163621A61B4D03D6C
:103A40000000601A61B4D03D7370032E8A19A33B45
:103A50000000002E8A19A33BC14920259A837B3997
:103A600000000000000000006E83F9A22915444EFA
:103A7000D15727FCC0DD34F5999562DB4190433C7A
:103A8000AB6351FE61C5BBDE3A6E24B7E0D24D4256
:103A9000EA2E49061C92D1091CEB1DFE3EA729B156
:103AA000F53582E88444BB2E26709CE9417E5FB4E4
:103AB00039D69139F43953838B5F849C3B28F9BD07
:103AC000FF97F81F0F9805DE8B112FEF1F6D0A5A15
:103AD000CF7E366DB709CB27663F464F2DEA5F9EF6
:103AE000C7BA27757BF1E5EBF739073DEA92528AB1
:103AF000B15FFB6B085D8D1FA6F810111111813F9E
:103B0000D561C119A0012ABF7DFEB157E31DC73E93
:103B1000EB9C2B8AE6E55ABE7CD5CF5A3AD9E53DD7
:103B2000403B0008000000200C010000C401000818
:103B30004C3C00080C010020A40A0000E001000831
:103B40000000000001020304010203040607080943
:103B50000000000000000000000000000000000065
:103B60000000000000000000FF0F00000000000047
:103B700000000000FF078F090F0B710CAA0DA60EA5
:103B8000630FD80FFF0FD80F630FA60EA70D710C90
:103B90000F0B8F09FF076F06EF048D0357025801C3
:103BA0009B002600000026009B00580157028D0351
:103BB000EF046F0600000001000200030004FF0490
:103BC000FF05FF06FF07FF08FF09FF0AFF0BFE0CBA
:103BD000FE0DFE0EFF0FFE0EFE0DFE0CFF0BFF0A8C
:103BE000FF09FF08FF07FF06FF05FF0400040003AD
:103BF000000200010000840008018C011002940200
:103C000018039C032104A5042905AD053106B5065A
:103C10003907BD074108C5084909CD09510AD50A28
:103C2000590BDD0B620CE60C6A0DEE0D720EF60EF2
:103C30007A0FFF0F00000000007A030A0000000066
:0C3C400000000000010203040607080950
:040000050800018965
:00000001FF
